:020000040800F2
:100000009006002061020008351C00082D1B000826
:10001000311C0008B5130008891C0008000000000E
:100020000000000000000000000000003D1C00086F
:10003000B913000800000000391C0008411C00082A
:100040007B0200087B0200087B0200087B0200089C
:100050007B0200087B0200087B0200087B0200088C
:100060007B0200087B0200087B0200087B0200087C
:100070007B0200087B0200087B0200087B0200086C
:100080007B0200087B0200087B0200087B0200085C
:100090007B0200087B0200087B0200087B0200084C
:1000A0007B0200087B0200087B0200087B0200083C
:1000B0007B0200087B0200087B0200087B0200082C
:1000C0007B0200087B0200087B0200087B0200081C
:1000D0007B0200087B0200087B0200087B0200080C
:1000E0007B0200087B0200087B02000800F002F897
:1000F00000F0A6F814A696E8000CB244B344DA4522
:1001000001D100F09DF8BAE80F000FA696E8300084
:10011000A5EB040504EB0607AAEB0704A7F101070A
:100120004FEA15154FEA3414A4F10104AC4201D38F
:1001300000F086F813F0010F18BFFB1A43F001031B
:1001400000F001F8DBE718475C3000007C3000006D
:10015000103A24BF78C878C1FAD8520724BF30C8F3
:1001600030C144BF04680C60704700007047000055
:100170000023002400250026103A28BF78C1FBD8B0
:10018000520728BF30C148BF0B6070476E2900F08E
:100190004781702900F08B82662902F06E876529FD
:1001A00002F06B87672902F06887612902F0678790
:1001B00003681B0A28BF41F08001692900F0F48020
:1001C000642900F0F180752900F0EE806F2900F0BD
:1001D0001982782900F05782E92900F0B381E429D7
:1001E00000F0B081F52900F0AD81EF2900F0168212
:1001F000F82900F056820368DB0928BF41F080012E
:10020000632900F05787732900F05C87E32900F029
:100210006787F32900F06C87002070471FB500F056
:10022000BDFF04000020002102F09AFE401C606027
:100230000020002102F07EFEE0601FBD10B510BD61
:1002400000F07EFF1146FFF7E9FF02F0F3F801F03E
:100250005BF803B4FFF7F2FF03BC01F0A3F8000062
:100260000948804709480047FEE7FEE7FEE7FEE74A
:10027000FEE7FEE7FEE7FEE7FEE7FEE70448054986
:10028000054A064B70470000851C0008ED00000879
:100290009000002090060020900200209002002094
:1002A0007CB51D4616460C00009007D04142A14285
:1002B00002D32044401E01E04FF0FF30064B7B4448
:1002C0002A4669460190304600F0C3F8002C02D05F
:1002D000009A002111707CBDB70100007047704783
:1002E000704770B5044685690068C10601D530269F
:1002F00000E02026C00707D070BDD4E901213046B8
:100300009047206A401C20626D1EF6D570BD70B506
:10031000044685690078C00707D170BDD4E9012182
:1003200020209047206A401C20626D1EF6D570BDCB
:1003300009684A0501D540B27047C905FCD500B22D
:10034000704709684A0501D5C0B27047C905FCD598
:1003500080B2704770B50C460546012A05D0287852
:10036000800600D5EA69002302E0012305E05B1C5A
:10037000934202D2E05C0028F9D1A869E618C01ABD
:10038000A861286A184428622846FFF7AAFF04E0FB
:10039000D5E9012114F8010B9047B442F8D328465F
:1003A000FFF7B5FF70BD00002DE9F04106460024BF
:1003B00010687529314616A510D0FFF7B9FF00283F
:1003C00002DA404213A507E031688A0701D512A579
:1003D00002E0490704D511A5012401E0FFF7B1FFB0
:1003E00000210A2206F1240709E0B0FBF2FCB0FB71
:1003F000F2F302FB1C00303078541846491C0028E8
:10040000F3D123462A463046BDE8F04100F063BAF6
:10041000000000002D0000002B0000002000000064
:1004200011680268006A530501D508700AE0D30517
:1004300001D5088006E0130603D5C217C1E9000202
:1004400000E008600120704701694A1C02610878D9
:10045000704700B58FB0CDE9013100210591054904
:100460007944CDE903101146684600F02BF90FB02E
:1004700000BD0000E5FFFFFFD1E900239A4202D250
:10048000531C0B60107070472DE9FF5F15468A46BC
:100490000446DFF8AC80F8440027D8E900103E4657
:1004A000CDE9001010E03AF816106A4602A800F0F4
:1004B00023FE411C07D02178890603D5E26939184B
:1004C00091420DD80744761C2078800602D5E06959
:1004D000B84205DDAE42E6DB3AF816000028E2D16C
:1004E000A069C01BA0612046FFF7FBFED8E9001001
:1004F000CDE90010002017E03AF818106A4602A86B
:1005000000F0FAFDB0F1FF3F81460BD000250DF160
:10051000080B05E0D4E901211BF8050090476D1C8C
:100520004D45F7D308F10100B0428046E4DB206A74
:10053000384420622046FFF7EAFEBDE8FF9F000036
:10054000EA2B00002DE9F0418046D21D22F007027F
:100550000025D2E90002F52915A614D0011E72F17A
:10056000000106DA0023D0EB030063EB020211A6C0
:1005700008E0D8F800108B0701D50FA602E0490764
:1005800001D50EA601251146002408F1240704E038
:1005900000F05CF930323A55641C50EA0102F7D1A0
:1005A0002B46324621464046BDE8F04100F093B963
:1005B000000000002D0000002B00000020000000C3
:1005C00030B4002100F1240408E002F00705D2084D
:1005D000303542EA4372DB086554491C52EA030590
:1005E000F3D10468002310A2250708D504F02004E5
:1005F0000C4304D0C46901230CA2641EC46130BC46
:1006000000F069B910B5044621461068FFF799FE5D
:1006100002462046BDE810400023D1E7D21D22F05B
:100620000701D1E90023CBE7000000003000000003
:10063000F0B40D460188090502D5214C7C4402E046
:100640001F4C7C440E34002100F1240608E002F027
:100650000F071209E75D42EA03721B097754491C30
:1006600052EA0307F3D102780023120704D5702D54
:1006700006D009B1022311342246F0BC00F02BB998
:1006800001231034F8E770B504460D462146106882
:10069000FFF757FE024629462046BDE8704000237A
:1006A000C6E7D21D22F00703D3E90023C0E70368A1
:1006B000126843F0200303600823C3610023B7E7F7
:1006C0004C2A00002DE9F05F894604464FF0000AED
:1006D000DFF874B1FB44C0F820A02046E1688847E9
:1006E000002874D0252806D0D4E901219047206A3B
:1006F000401C2062F1E700265F462046E1688847FB
:100700002028054607DB312D05D2781910F8200C7A
:1007100008B10643F1E7B00701D526F00406C4F896
:100720001CA00027C4F818A02A2D09D0284602F0E2
:10073000F9FB38B304EB8708303DC8F8185019E0CE
:1007400059F8041B204604EB87029161E168884751
:10075000012F054618D1E069002820DA26F020068E
:100760001DE0D8F8180000EB800005EB40003038A1
:10077000C8F818002046E1688847054602F0D2FB19
:100780000028EED1012F0AD02E2D08D12046E16895
:1007900088477F1C0546022F46F02006C4DBA0696F
:1007A000002803DA404246F00106A061F00701D0BC
:1007B00026F010066C2D0BD0682D09D04C2D39D0A9
:1007C0006A2D35D0742D35D07A2D33D016E038E02F
:1007D000E1682F4620468847B842054609D16C2F6C
:1007E00026D04FF48060E1680643204688470546DE
:1007F00004E06C2F1AD04FF4807006430DB3A5F1BE
:100800004100192802D8203546F400664A46294698
:10081000204626604E46FFF7B9FC80B101280BD078
:10082000F61D26F0070000F1080956E74020E4E72E
:100830008020D8E70020D6E706F104094DE72846D6
:1008400052E7206ABDE8F09FDC29000030B5B0F126
:100850000A0271F100034FEA900E4EEA817EB0EB7E
:100860000E0061EB91014FEA101E4EEA017E10EB83
:100870000E0041EB11114FEA102E4EEA016E10EB03
:100880000E0041EB11214FEA104E4EEA014E10EBE3
:100890000E0041EB1141401841F100014FEAD00038
:1008A00040EA41704FEAD1014FEA810444EA907472
:1008B00010EB800544EB01046D1944EB0404521B5A
:1008C000A3414FF0000348BF0A3200D530BD401CA1
:1008D00041F1000130BD2DE9F0470D4699469246A1
:1008E000044600F124080168880604D5E06921F077
:1008F0001001216000E00120A84201DD471B00E05B
:100900000027A1697A1902EB0900081AA061207872
:10091000C00602D42046FFF7E4FC002608E0D4E934
:1009200001211AF806009047206A401C761C2062BC
:100930004E45F4DB2078C0060AD52046FFF7D1FCEF
:1009400006E0D4E9012130209047206A401C206253
:10095000381EA7F10107F4DC07E0D4E9012118F8FB
:1009600005009047206A401C2062281EA5F1010561
:10097000F3DC2046FFF7CBFC2078000602D50220EE
:10098000BDE8F0870120FBE72DE9FF4F0C461E462E
:100990004FF0FF378BB0D2E90001DDF860800A909C
:1009A0008A46C1F30A5505B93D46002108464FF075
:1009B0000000BAF1000F00F4400005DA00EB8000FF
:1009C0004FF4400101EA50004FEA9059B9F1010F8C
:1009D00000DDB9460A9850EA4A000ED044F610509D
:1009E000A5F2FF3545432F14B8F1000F1ED0754214
:1009F000291E1EDDC9F100021CE0B8F1010F4FF005
:100A0000000001D0302103E0F24305E02154401CF6
:100A1000B042FBDB30460022002121540B99C1F883
:100A20000880C1E900200FB0BDE8F08FBD1B6D1C30
:100A3000DEE74A4600DA694206A800F0F3FB06AB9F
:100A400093E8070003AB83E8070050460A9901F0DA
:100A50008DFE8DE80700A0F500501F380090039828
:100A6000002D0ADD42F21F014A460844002303A973
:100A70000390684602F0F6F809E0A0F500504A46F7
:100A80001F38002303A90390684602F000F98DE89F
:100A900007000004000C03D04FF0FF30410800E0D5
:100AA0001046B8F1000F03D00022009215461EE058
:100AB000751E05D4FFF7CAFE303262556D1EF9D59A
:100AC000B3460122084302D000227F1C04E02078B4
:100AD000302801D100227F1E002A099784D01DE012
:100AE000112D07DAFFF7B2FE303262556D1C50EA65
:100AF0000102F5D1084302D00098C8B10EE00021F0
:100B0000681E05E0235C625C63542254401E491C4D
:100B10008142F7DBAB46A81B401E0990002004F879
:100B20000B000B98099AC0F80880C0E9002B7AE7FF
:100B300011264FF0000857E72DE9F04F884604468C
:100B4000D21D22F0070191B0D1E90001CDE90A01DF
:100B500002F0D4F902460B98C00F01D02D2007E017
:100B60002068810701D52B2002E0202101EAC00086
:100B7000032A099001D0072A05DB03464146204697
:100B800000F010FB0BE12078800601D5E06900E061
:100B90000620B8F1650F814606D0B8F1660F18D06F
:100BA000B8F1670F70D131E00020B9F1110F00905A
:100BB00001DB112301E009F101030AAA01A90CA834
:100BC000FFF7E2FEDDE90C70002609F1010583461E
:100BD00047E001204B4600904FF000470AAA01A9C8
:100BE0000CA8FFF7D1FEDDE90DB00C995D4600269B
:100BF00010B909F101000D18B9EB050003D4C0F1DB
:100C0000FF3609F10105A5EB09002BE0B9F1010F51
:100C100001DA4FF001090020B9F1110F00904846A8
:100C200001DD112300E003460AAA01A90CA8FFF781
:100C3000ABFEDDE90C704D460026834620780007A8
:100C40000AD4AB4500DA5D4601A8012D04DD411947
:100C500011F8011C302907D04F4502DA17F1040FB3
:100C600004DA012082460FE06D1EEEE7002F02DC61
:100C7000ED1B3E4403E0781CA84200DD7D1CB81B40
:100C800000F1010A4FF000472078000703D4AA457D
:100C900001DB4FF0FF3A0021B7F1004F0DF143089F
:100CA0008DF8431024D002202B23002F01DA7F423D
:100CB0002D230A21021EA0F1010000DC5FB197FB89
:100CC000F1FC97FBF1F201FB1C7C17460CF1300C98
:100CD00008F801CDEEE7A8F10100037021880905AD
:100CE00001D5452100E06521A0F1010800F8011CB3
:100CF00009980FA9A1EB0807FF1D00B101204119B8
:100D000001EBEA70A1693844081A401EA0612078FE
:100D1000C00602D42046FFF7E4FA099828B1D4E9C6
:100D200001219047206A401C20622078C00622D50D
:100D30002046FFF7D6FA1EE0002E04DBB34502DDA5
:100D400001A8805D00E03020D4E901219047206AAD
:100D5000401C2062761CAAF101005FEA000A0AD159
:100D600000F01CFAC0680168405CD4E9012190479A
:100D7000206A401C2062281EA5F10105DCDC07E08A
:100D8000D4E9012118F8010B9047206A401C206229
:100D9000381EA7F10107F3DC2046FFF7B8FA03205D
:100DA00011B041E62DE9F04F04460D46D21D22F068
:100DB000070089B0D0E900974846394602F09EF80E
:100DC0000246F80F01D02D2307E02068810701D5E6
:100DD0002B2302E0202101EAC0038DF820300BB163
:100DE000012000E00020032A824601D0072A04DB0C
:100DF0002946204600F0D6F93FE12078800601D44C
:100E00000D2500E0E569C7F30A560D2D49DA0021EA
:100E10004FEA175B08464FF00000002F00F4400037
:100E200007DA00EB80004FF4400100EBD07001EADC
:100E300060008115012901DD4FF0FF3100224FEAEA
:100E4000850CBCF1180F06D31346ACF118004FF017
:100E50008052C24003E04FF4801323FA0CF30CF1EC
:100E60000C0CBCF1200F04D3ACF1200C09FA0CF0EF
:100E700001E007FA0CF000294FF0004801DD18B935
:100E80000FE00ED140450CD319EB02095F4121B9A7
:100E9000404502D19F4329EA0209BBEB175F00D00E
:100EA000761C2088000502D57B48784402E07A4809
:100EB0007844193808AA302302F80A30037C0AF172
:100EC0000101002E0AF1020A53546A4602DC4FF077
:100ED000300101E04FF031014FF001088DF80010B2
:100EE00002D0A6F2FF3603E059EA470100D06B4E6C
:100EF000002D02DC2178090704D54FF002082E21CD
:100F00008DF80110C44600210BE0C7F303433F01F5
:100F1000C35C491C6D1E02F80830052908F1010860
:100F200001DA002DF1DC00210CE000EB1973491C03
:100F30001B786D1E082902F808304FEA091908F1DC
:100F4000010801DA002DF0DC21688B0602D516E0DD
:100F5000A8F10108E04505DD02EB080313F8013CA8
:100F6000302BF5D0B8F1000F09DD02EB080313F8C0
:100F7000013C2E2B03D1090701D4A8F10108002D53
:100F800005DD3E2102F808106D1E08F10108407CC5
:100F9000002E02F8080008F1010804DA2D2076423C
:100FA00002F8080002E02B2002F808000A214FF4A2
:100FB0007A70864208F101080BDB96FBF0F33033C0
:100FC00002F8083096FBF0F308F1010800FB136605
:100FD00001E0642E0CDB642096FBF0F3303302F862
:100FE000083096FBF0F308F1010800FB136601E0FE
:100FF0000A2E06DB96FBF1F0303002F8080008F10B
:10100000010896FBF1F001FB1060303002F8080097
:10101000A16908F1010808EB050202EB0A00081AB1
:10102000A0612078C00602D42046FFF75AF9216A51
:1010300008AE01EB0A00206204E0D4E9012116F8B1
:10104000010B9047BAF1010AF7D22078C00602D509
:101050002046FFF746F96E4609E016F8010B3E28D8
:101060000FD0D4E901219047206A401C2062B8F1DA
:101070000108F2D22046FFF74AF909B00320BDE883
:10108000F08F206A2844206203E0D4E90121302057
:1010900090476D1EEBD3F8E72A22000002FCFFFF09
:1010A00010B5436913B1AFF3008001E0FFF752F9C7
:1010B000012010BD127800F124010A7000224A704C
:1010C0000122EDE711684FF0FF32E9E710B54369FF
:1010D00013B1AFF3008001E0FFF7D6F9012010BD96
:1010E000128800F1240182840022C2840122EDE7EB
:1010F00011684FF0FF32E9E72DE9F04116460C4642
:10110000054600F043F8036893F80101012807D071
:10111000FF2C12D8185D80B101202C70BDE8F08141
:10112000D3F807013246214603F20713C7182846B1
:10113000BC46BDE8F041002360474FF0FF30EDE7CB
:10114000754600F0EBF8AE4605006946534620F0C0
:101150000700854618B020B5FFF790F8BDE820409D
:101160004FF000064FF000074FF000084FF0000B63
:10117000AC46ACE8C009ACE8C009ACE8C009ACE8D2
:10118000C00921F007018D467047000010B500F03E
:1011900005F8001D10BD00BFC91D000000487047C4
:1011A000300000202DE9F0411F4604460326016867
:1011B000072A01F4006004DB08B116A505E016A5B6
:1011C00003E008B115A500E015A521F0100020608E
:1011D000A069C01EA0610FB1401EA0612046FFF7AC
:1011E00080F84FB1D4E9012138469047206A401C6D
:1011F0002062C01C206206E0206AFAE7D4E90121DF
:1012000015F8010B9047761EF8D22046FFF77FF8BD
:10121000BDE8F0814E414E006E616E00494E4600C1
:10122000696E66002DE9F047814616468AB035485A
:1012300078440DC88DE80D0032487844801C03AC1A
:101240000DC884E80D0041F69B300844372190FB1F
:10125000F1F290FBF1F5A5F1800501FB12041B3CB6
:1012600002D56442012000E00020DFF898A080460B
:101270000027FA44AAF1BE0A0EE0E0070AD032467F
:10128000684607EB470101230AEB810101F0FFFCEF
:101290008DE8070064107F1C002CEED1194F7F44AD
:1012A000AE3F19E0E80715D007EB04100DF1180A5E
:1012B00090E80E008AE80E00C068F04201D198194B
:1012C00008903246012306A903A801F0E0FC03AB15
:1012D00083E807006D10641C002DE3D14FF001037B
:1012E00032466946B8F1000F03A802D001F0BAFCFB
:1012F00001E001F0CCFCC9E90001C9F808200AB0FE
:10130000BDE8F087341F000010B50446AFF300803D
:101310002046BDE81040FEF79CBF00000048704723
:10132000100000204FF0013C50F8042B51F8043B12
:101330009A4221D1A2EB0C03934313EACC1317D1A9
:1013400050F8042B51F8043B9A4215D1A2EB0C0340
:10135000934313EACC130BD150F8042B51F8043B00
:101360009A4209D1A2EB0C03934313EACC13DBD0CE
:101370004FF00000704700BFD01A01BAB1FA81F1F6
:1013800001F0180122FA01F0CB40DBB2C0B2C01A62
:10139000C1F120012CFA01F3D11A914311EAC311D2
:1013A000E6D1704701491820ABBEFEE726000200D7
:1013B00070470000FEE7000070470000B0B504462B
:1013C00000F010F8054640F20000C2F2000000787C
:1013D000611C18BF044400BF00F004F8401BA04289
:1013E000FAD3B0BD40F28800C2F200000068704736
:1013F00040F2000040F28801C2F20000C2F2000197
:1014000000780A68104408607047000080B542F216
:101410000000C4F20200016841F0100101600320E5
:1014200000F07AF80F2000F005F800F027F800200F
:1014300080BD000070B540F20006C2F2000640F226
:1014400008013278C2F200014FF47A730968B3FBE5
:10145000F2F20446B1FBF2F1084600F051FB0F2C0A
:101460004FF0010508D838B94FF0FF30214600226F
:10147000002500F025F87460284670BD82B041F266
:101480001800C4F202000168022241F0010101606B
:10149000016801F0010101910199416841F0805119
:1014A0004160406800F08050009000980420C4F231
:1014B0000100016862F31A61016002B07047000028
:1014C00010B54EF60C5CCEF2000CDCF80030C3F325
:1014D000022E8EF00704042C28BF0424BEF103035F
:1014E0004FF0FF3E0EFA04F438BF0023A1439940A9
:1014F0000EFA03F39A43114300F00F0200F1604328
:101500000901043A03F564436244002848BF02F12C
:101510000C03197010BD00004EF60C51CEF2000104
:101520000A684FF6FF031A4060F30A2242F0806017
:1015300040F0FD700860704700F0A8FB002804BF71
:10154000012070472DE9F04381B042F20008C4F257
:1015500002080446D8F800000D4600F00700884253
:101560000CD2D8F8000020F007002843C8F800008B
:10157000D8F8000000F00700A8426CD1206841F2C2
:1015800004098107C4F2020917D5410705D5D9F826
:10159000001041F4E061C9F80010010705D5D9F841
:1015A000001041F46051C9F80010D9F80010A26889
:1015B00021F0F0011143C9F80010C00742D1D8F85A
:1015C000000000F00700A8420CD9D8F8000020F075
:1015D00007002843C8F80000D8F8000000F0070012
:1015E000A84238D12068410707D5D9F80010E26831
:1015F00021F4E0611143C9F80010000708D5D9F8BB
:101600000000216920F4605040EAC100C9F80000E0
:10161000D9F8002002F00C00082841F20020C0F2A6
:101620007A0051D143F29213C2F38341C0F6000312
:10163000595CD2033CD440F60010C0F23D00484350
:1016400042E000BF606802280AD001282AD159F878
:10165000041C890308D4012001B0BDE8F08300BF59
:1016600059F8041C8901F6D5D9F8001021F00301BE
:101670000843C9F80000FFF7B5FE064641F2883777
:10168000D9F80000616800F00C00B0EB810F96D033
:10169000FFF7A8FE801BB842F2D9032001B0BDE8D5
:1016A000F08300BF59F8041C8907D4D5DCE700BFDC
:1016B000D9F8002043F29013C2F34042C0F6000371
:1016C0009A5C4843B0FBF2F0D9F8001043F2801264
:1016D000C1F30311C0F60002515C40F2080220FA87
:1016E00001F140F20400C2F200000068C2F2000200
:1016F0001160FFF79FFE002001B0BDE8F0830000FD
:10170000002804BF012070472DE9F04182B0044653
:10171000007841F20006C007C4F202060CD07068DF
:1017200000F00C00042840F081803068800303D56D
:101730006068002800F04E81207880071BD5706813
:1017400010F00C0F09D0706800F00C00082840F071
:101750008B807068C00300F187803068800703D5F4
:101760002069012840F036813068616920F0F80076
:1017700040EAC10030602078000713D42078400789
:101780002CD4E569002D00F02081706800F00C0079
:10179000082840F0AF80012D40F00C81012002B0FC
:1017A000BDE8F081A069002800F08C800020C4F220
:1017B00042200121C0F88014FFF714FE054600BF47
:1017C000706A800700F1BA80FFF70CFE401B022808
:1017D000F6D9032002B0BDE8F08100BFF0695FEAEE
:1017E000C00808D4F06940F08050F061F06900F062
:1017F00080500090009847F20007C4F20007386854
:10180000C0054DD4386840F480703860FFF7EAFDB9
:10181000054600BF3868C00542D4FFF7E3FD401B12
:101820006428F7D9032002B0BDE8F081706800F0A9
:101830000C00082803D17068C0033FF576AF6068DC
:10184000002800F00981B0F5A02F00F01D81B0F54F
:10185000803F00F01D81306820F4803030603068B7
:1018600020F4802017E100BF2069002840F200002A
:10187000C4F2422000F08C8001210160FFF7B2FD2C
:10188000054600BF306880073FF56EAFFFF7AAFD41
:10189000401B0228F6D9032002B0BDE8F08100BF4A
:1018A000E068002800F09A80052800F0B180012847
:1018B00000F0B280306A20F001003062306A20F01F
:1018C0000400ACE00020C4F242200021C0F88014E3
:1018D000FFF788FD054600BF706A80077FF54EAFB1
:1018E000FFF780FD401B0228F6D9032002B0BDE8B7
:1018F000F08100BF0027C4F2422700203866FFF7BE
:1019000071FD022D05460DD13068800140F1D68071
:10191000FFF768FD401B02284FF00300F4D902B026
:10192000BDE8F081306880014FD5FFF75BFD401BBB
:1019300002284FF00300F5D9F1E700BF40F208009C
:10194000C2F20000006844F6D351C1F26201A0FB6C
:101950000101480A019000BF00BF0198411E002804
:1019600001913FF40BAF00BF0198411E0028019187
:101970003FF404AF00BF0198411E002801913FF4DD
:10198000FDAE00BF0198411E00280191E4D1F5E6AB
:1019900000210160FFF726FD054600BF3068800783
:1019A0007FF5E9AEFFF71EFD401B02284FF0030054
:1019B000F4D9B4E77068216A00F480328A4209D110
:1019C000616A00F47010884204D1002002B0BDE8C2
:1019D000F08100BF012002B0BDE8F081306A20F044
:1019E00001003062306A20F004003062FFF7FAFC38
:1019F000054641F2883700BF306A800722D5FFF7DD
:101A0000F1FC401BB8424FF00300F5D987E700BF57
:101A1000306A40F004003062306A40F00100306209
:101A2000FFF7E0FC054641F2883700BF306A8007C7
:101A300008D4FFF7D7FC401BB842F7D9032002B007
:101A4000BDE8F081B8F1000F3FF59BAEF06920F0E2
:101A50008050F06195E600BF306820F4803030603F
:101A6000306820F480203060FFF7BCFC054600BFE2
:101A7000306880037FF560AEFFF7B4FC401B64283C
:101A80004FF00300F4D94AE7306840F4802030601A
:101A9000306840F480303060FFF7A4FC054600BF9A
:101AA000306880033FF548AEFFF79CFC401B64287C
:101AB000F6D9032002B0BDE8F08100BF206AB0F57E
:101AC000803F05D17168A26821F400311143716033
:101AD0007168626A21F47411114308437060012037
:101AE0003866FFF77FFC0446306880013FF56DAF34
:101AF000FFF778FC001B02284FF00300F4D90EE733
:101B0000411E0020B0EB116F1CBF012070474EF248
:101B10001002CEF2000251604EF62351CEF20001C7
:101B2000F0230B700721906011607047FEE7000002
:101B300080B582B00DF101021C200D2100F094F956
:101B40009DF801002A2852D10DF102021C202A2101
:101B500000F08AF99DF802002A2100F0FE021C2004
:101B600000F0AAF80DF103021C200E2100F07CF910
:101B70009DF803000E2100F0FC021C2000F09CF8F0
:101B800001AA1C202A2100F06FF99DF804002A21E7
:101B900040F001021C2000F08FF80DF105021C201E
:101BA0002A2100F061F99DF805002A2100F0FE02CB
:101BB0001C2000F081F80DF106021C202A2100F003
:101BC00053F99DF806002A2100F0C7021C2000F0FE
:101BD00073F80DF107021C202A2100F045F99DF849
:101BE00007002A2140F001021C2000F065F802B035
:101BF00080BD000070B582B014460D4606460DF15A
:101C000002021C200121062300F0E4F9BDF80200C5
:101C1000BDF80410C0BA00093080C8BABDF806107B
:101C200000092880C8BA0009208002B070BD0000F9
:101C3000FEE70000FEE7000070470000704700006C
:101C4000FFF7D6BBB0B590B04FF48030002401252B
:101C5000079006A8CDE90E44CDE90C44CDE90A442D
:101C6000CDE908440695FFF74BFD0F20CDE90105AE
:101C700001A80021CDE903440594FFF75FFC10B0F3
:101C8000B0BD000070470000FEE700004EF60C50AB
:101C9000BFF34F8FCEF200000168042201F4E0612F
:101CA000C0F2FA5211430160BFF34F8F00BF00BF73
:101CB00000BF00BFFAE7000045F2144CC4F2000C6C
:101CC000DCF804309B070CD5DCF804309B0744BFDC
:101CD000DCF804305FEA837303D5DCF804309B073B
:101CE000EED45CF8143C43F480734CF8143CDCF8FC
:101CF0000030DB070CD1DCF80030DB0704BFDCF878
:101D000000305FEAC37303D1DCF80030DB07EED0AC
:101D100040004CF8040CDCF8000080070CD4DCF820
:101D2000000080075CBFDCF800005FEA807003D42D
:101D3000DCF800008007EED5DCF80400DCF80000D9
:101D400000060CD4DCF8000000065CBFDCF80000E4
:101D50005FEA006003D4DCF800000006EED54CF822
:101D6000041CDCF8000000060CD4DCF800000006BF
:101D70005CBFDCF800005FEA006003D4DCF8000020
:101D80000006EED54CF8042CDCF8000040070CD41B
:101D9000DCF8000040075CBFDCF800005FEA407040
:101DA00003D4DCF800004007EED55CF8140C40F4D6
:101DB00000704CF8140C704745F21442C4F2000253
:101DC00053689B0709D553689B0744BF53685FEA74
:101DD000837302D553689B07F2D452F8143C43F442
:101DE000807342F8143C1368DB0709D11368DB07E2
:101DF00004BF13685FEAC37302D11368DB07F2D034
:101E0000400042F8040C1068800709D4106880076D
:101E10005CBF10685FEA807002D410688007F2D55A
:101E200050681068000609D4106800065CBF10688E
:101E30005FEA006002D410680006F2D542F8041C84
:101E40001068400709D4106840075CBF10685FEA5B
:101E5000407002D410684007F2D552F8140C40F4D8
:101E6000007042F8140C704745F2144CC4F2000C98
:101E7000DCF804309B070CD5DCF804309B0744BF2A
:101E8000DCF804305FEA837303D5DCF804309B0789
:101E9000EED45CF8143C43F480734CF8143CDCF84A
:101EA0000030DB070CD1DCF80030DB0704BFDCF8C6
:101EB00000305FEAC37303D1DCF80030DB07EED0FB
:101EC00040004CF8040CDCF800309B070CD4DCF824
:101ED00000309B075CBFDCF800305FEA837303D4FB
:101EE000DCF800309B07EED5DCF80430DCF800307D
:101EF0001B060CD4DCF800301B065CBFDCF800309D
:101F00005FEA036303D4DCF800301B06EED54CF81F
:101F1000041CDCF8001009060CD4DCF800100906DB
:101F20005CBFDCF800105FEA016103D4DCF800104C
:101F30000906EED55CF8141C41F480714CF8141CB1
:101F4000DCF80010C9070CD1DCF80010C90704BF89
:101F5000DCF800105FEAC17103D1DCF80010C9079A
:101F6000EED040F001004CF8040CDCF800008007D3
:101F70000CD4DCF8000080075CBFDCF800005FEAEE
:101F8000807003D4DCF800008007EED55CF8140CF8
:101F900020F480604CF8140CDCF804005CF8140C9D
:101FA00040F400704CF8140CDCF8000040060CD42F
:101FB000DCF8000040065CBFDCF800005FEA40602F
:101FC00003D4DCF800004006EED55CF8040C107079
:101FD0007047000080B545F2144CC4F2000CDCF8E8
:101FE00004E05FEA8E7E0ED5DCF804E05FEA8E7EC8
:101FF00044BFDCF804E05FEA8E7E04D5DCF804E040
:102000005FEA8E7EEBD45CF814EC4EF4807E4CF8E4
:1020100014ECDCF800E05FEACE7E0ED1DCF800E0E4
:102020005FEACE7E04BFDCF800E05FEACE7E04D13A
:10203000DCF800E05FEACE7EEBD04FEA400E4CF8D1
:1020400004ECDCF8000080070CD4DCF8000080070A
:102050005CBFDCF800005FEA807003D4DCF80000AD
:102060008007EED5DCF80400DCF8000000060CD494
:10207000DCF8000000065CBFDCF800005FEA0060EE
:1020800003D4DCF800000006EED54CF8041CDCF8A4
:10209000000000060CD4DCF8000000065CBFDCF891
:1020A00000005FEA006003D4DCF800000006EED513
:1020B0005CF8140C40F480704CF8140CDCF8000050
:1020C000C0070CD1DCF80000C00704BFDCF800003A
:1020D0005FEAC07003D1DCF80000C007EED04EF01C
:1020E00001004CF8040CDCF8000080070CD4DCF88C
:1020F000000080075CBFDCF800005FEA807003D45A
:10210000DCF800008007EED5DCF804005CF8140C65
:1021100040F480604CF8140C05E000BF5CF8040C3F
:10212000013B02F8010BD8B2002808BF80BD01288E
:1021300012D0DCF800004006F0D4DCF800004006C5
:102140005CBFDCF800005FEA4060E7D4DCF8000028
:102150004006EED5E2E700BF5CF8140C20F4806086
:102160004CF8140C5CF8140C40F400704CF8140C8F
:10217000DCF8000040060CD4DCF8000040065CBF30
:10218000DCF800005FEA406003D4DCF800004006A1
:10219000EED55CF8040C107080BD000041F2180010
:1021A000C4F20200016841F00801016040F60041FC
:1021B000C4F201010A6842F040720A600A6842F003
:1021C00040620A600A6842F040520A600A6842F0BF
:1021D00040420A60016841F001010160416841F438
:1021E0000011416045F20440C4F20000016821F092
:1021F0003F010160016841F0080101600921C161EE
:10220000816941F02801816150F8041C41F001010D
:1022100040F8041C7047000080B527200C21FFF710
:10222000CBFD27200821FFF7C7FD27201C21FFF742
:10223000C3FD27201821FFF7BFFD0520BDE8804022
:10224000FFF7BCB870B501F1400363F07F036FF096
:102250007F02012808BF81EA020323F00F00190161
:1022600000F10C0200F1080401F10C0501F108066F
:10227000D1B22720FFF7A0FDE1B22720FFF79CFD98
:10228000E9B22720FFF798FDF1B22720FFF794FD70
:102290000520BDE87040FFF791B8000080B5272009
:1022A0003C21FFF789FD27203821FFF785FD2720F6
:1022B0003C21FFF781FD27203821FFF77DFD2720F6
:1022C0003C21FFF779FD27203821FFF775FD2720F6
:1022D0002C21FFF771FD27202821FFF76DFD32200B
:1022E000FFF76CF827202C21FFF766FD2720282117
:1022F000FFF762FD27208C21FFF75EFD2720882154
:10230000FFF75AFD3220FFF759F827200C21FFF77D
:1023100053FD27200821FFF74FFD27201C21FFF741
:102320004BFD27201821FFF747FD3220FFF746F825
:1023300027200C21FFF740FD27200821FFF73CFD57
:1023400027206C21FFF738FD27206821FFF734FD97
:102350003220FFF733F827200C21FFF72DFD27202F
:102360000821FFF729FD2720CC21FFF725FD272095
:10237000C821FFF721FD3220FFF720F827200C218C
:10238000FFF71AFD27200821FFF716FD27202C2133
:10239000FFF712FD27202821FFF70EFD3220FFF75F
:1023A0000DF827208C21FFF707FD27208821FFF754
:1023B00003FD27200C21FFF7FFFC27200821BDE8A3
:1023C0008040FFF7F9BC000083B0F0B586B004464A
:1023D0000BA801AD0EC00BAB28461421224600937A
:1023E000FDF75EFF9DF80400F8B16C1E20F00F01B0
:1023F000000101F10D0201F1090500F10D0600F1E6
:102400000907D1B22720FFF7D7FCE9B22720FFF751
:10241000D3FCF1B22720FFF7CFFCF9B22720FFF75A
:10242000CBFCA07801340028E0D106B0BDE8F04034
:1024300003B0704782B040F60006C4F20106FEF712
:10244000E5FFFFF7FFFB41F21800C4F2020001684C
:1024500041F004010160016841F008010160016878
:1024600041F010010160016841F02001016041F27A
:102470000400C4F20100016821F4700101600168E8
:1024800041F440110160016841F48001016031684C
:1024900021F470613160316841F44071316031681C
:1024A00041F480613160316821F47021316031681C
:1024B00041F440313160316841F480213160D6F817
:1024C000001421F00F01C6F80014D6F8001421F012
:1024D000F001C6F80014D6F8001441F08801C6F8DF
:1024E00000144FF60841CFF6FF71425842F0030244
:1024F0004250FFF753FE10254FF0040B3561C6F82C
:1025000010B0FFF715FBFFF7C9FE6420FEF756FF7A
:1025100001200021FFF796FE7AA0FFF755FF022069
:102520000021FFF78FFE7BA0FFF74EFF40F2DC504B
:10253000FEF744FF41F21000C4F201004FF40051D5
:102540000160FFF769FE40F2700940F20C08C2F228
:10255000000940F2880AC2F20008C2F2000A09F13A
:10256000020009F1040709F10604019004E000BF2C
:10257000F0683561C6F810B0D6F80804C0072FD14E
:10258000D6F80804C0070DD1D6F80804C00704BF68
:10259000D6F808045FEAC07004D1D6F80804C00772
:1025A000EED000BF98F80000B0FA80F14909002889
:1025B00088F8001058D0FFF72FFE01200021FFF708
:1025C00041FE58A0FFF700FF02200021FFF73AFE6E
:1025D00058A0FFF7F9FE98F8000018BBC8E700BF45
:1025E000D6F80804800719D4D6F8080480070DD45B
:1025F000D6F8080480075CBFD6F808045FEA80704C
:1026000004D4D6F808048007EED500BFFFF704FE17
:102610004FF47A70FEF7D2FEFEF78EFF98F80000B6
:102620000028A5D00128A7D1DAF80000D9F80810B1
:10263000401AC82822D299F80000012849D1DAF8B6
:102640000000D9F81010401AB0F5FA7F43D3F068B3
:1026500000F0040040EA004080F004003061DAF845
:102660000000C9F8100036E0002089F80000FFF7EC
:10267000D3FD98F800000028D4D179E701983946B5
:102680002246FFF7B7FAB9F8060033A5A0F5966021
:1026900010F52F7F4FF0000038BF012029A138BF6F
:1026A0000D4689F8000001200021FFF7CBFDD9F885
:1026B0000C0000F071FC024628460B461025FFF77F
:1026C00083FEDAF80000C9F8080099F80000012834
:1026D000B5D0C6F810B0DAF80000D9F81410401AD6
:1026E000B0F57A7FFFF448AFF06800F0100040EAE0
:1026F000004080F010003061DAF80000C9F81400E2
:102700003AE700BF2020202057656C636F6D65217C
:102710000000000020746F20746865207379737462
:10272000656D2000204E68616E20627574746F6E56
:1027300000000000206465206261742064617520DF
:10274000200000002031202D204E67612020202015
:1027500020202020200000002030202D2042696E03
:1027600068207468756F6E67200000005FEA400C97
:1027700008BF91F0000F4FEA8C234FEAC12243EAD1
:1027800051514FEA1C5018BF00F5F0404FEA30009D
:1027900018BF41F000415FEA6C5C00F02980BCF199
:1027A000FF3F08BF40F080407047130C06BF120483
:1027B0004FF0100C4FF0000C130E04BF12020CF17E
:1027C000080C130F04BF12010CF1040C930F04BF8B
:1027D00092000CF1020CD30F04BF52000CF1010C5B
:1027E00011464FF00002A0F11F00A0EB0C00704753
:1027F00011F0004F08BF704731F000413FF4D5AFF2
:102800000B0C06BF09044FF0100C4FF0000C0B0E20
:1028100004BF09020CF1080C0B0F04BF09010CF1F5
:10282000040C8B0F04BF89000CF1020CCB0F04BF0A
:1028300049000CF1010CCCF1200322FA03F341EA28
:10284000030102FA0CF2A0EB0C0000F1010070474A
:1028500023F07F4720F07F4C80EA030000F0004027
:10286000ACEB070303F57C5303F1FF032DE980492B
:1028700009B44FEA144324EA03484FEA154B25EA0A
:102880000B4E0FF2042606EB13273E7803FB066778
:10289000C7F5000707FB06F64FEAD64606F1020623
:1028A0004FEA543707FB066CCCF1005C4FEA1C473B
:1028B0002CEA074C0CFB06F507FB06F404EB154667
:1028C0004FEA961649085FEA320234BF00204FF003
:1028D00000404FEAD13706FB07FC4FEA1C4C0CFBCB
:1028E0000BF7D21B03FB0CF761EB07010CFB0EF798
:1028F000B0EB074072EB17420CFB08F734BFA2EBBA
:102900000742B2EB074261EB17414FEA0C444FEA32
:10291000910706FB07FC4FEA1C4C0CFB0BF7B0EBD6
:10292000C74072EB573203FB0CF734BFA2EBC74230
:10293000B2EBC74261EB57310CFB0EF7B0EBC700AF
:1029400072EB57720CFB08F734BFA2EBC702B2EB75
:10295000C70261EB57714FEA816141EA92114FEA78
:10296000826242EA90124FEA806004EBCC04039F3B
:102970004FEAD13706FB07FC4FEA1C4C0CFB0BF768
:10298000D21B03FB0CF761EB07010CFB0EF7B0EB5E
:10299000074072EB17420CFB08F734BFA2EB07426B
:1029A000B2EB074261EB17414FEA8C5504EB9C24D4
:1029B0004FEA910706FB07FC4FEA1C4C0CFB0BF798
:1029C000B0EBC74072EB573203FB0CF734BFA2EBFE
:1029D000C742B2EBC74261EB57310CFB0EF7B0EBCD
:1029E000C70072EB57720CFB08F734BFA2EBC702AB
:1029F000B2EBC70261EB57714FEA816141EA921174
:102A00004FEA826242EA90124FEA806015EB4C2551
:102A100044F100044FEAD13706FB07FC4FEA1C4C97
:102A20000CFB0BF7D21B03FB0CF761EB07010CFB54
:102A30000EF7B0EB074072EB17420CFB08F734BF00
:102A4000A2EB0742B2EB074261EB17414FEA81313B
:102A500041EA92414FEA823242EA90424FEA8030A4
:102A60004FEA0C7615EB1C1544F1000448EA0343C9
:102A70004EEA0B484FF0000EB2EB080C71EB030767
:102A800024BF624639464EEB0E0E4FF0000B001885
:102A9000524149414BEB0B0BB2EB080C71EB0307B6
:102AA0007BF1000B24BF624639464EEB0E0E4FF011
:102AB000000B0018524149414BEB0B0BB2EB080CD9
:102AC00071EB03077BF1000B24BF624639464EEBE6
:102AD0000E0E51EA020718BF46F0010616EB0E76FD
:102AE00055F1000254F1000103D5BDE88901BDE8AC
:102AF0000088BDE88901BDE80048B619524141EBA4
:102B00000101A3F10103704780807F7E7D7C7B7A89
:102B10007978777676757473727171706F6E6E6D89
:102B20006C6C6B6A6A69686867666665646463632F
:102B300062616160605F5F5E5E5D5D5C5C5B5B5AB5
:102B40005A59595858575756565555555454535322
:102B500052525251515050504F4F4F4E4E4D4D4D7D
:102B60004C4C4C4B4B4B4A4A4A49494948484847C8
:102B70004747474646464545454444444443434306
:102B800043424242424141419C46002B30D47700AF
:102B90002BD04FEA37071CB503B44FF010004FF0AD
:102BA0001001BAF1000F06D0BCF1000FDCBF40F0FD
:102BB000080040F008014FF000000FBCBDE81040D5
:102BC0000BF1010BBBF1010F08BF5FEA170722BF32
:102BD00012F1010211F101014FF0004143F1000334
:102BE00000F0004043EA00007047F9D35708D0E7EF
:102BF00046EA06464FEA164613F1400F1FDD13F171
:102C0000200FDFBF16430A46002120335B42BED0AF
:102C1000C3F1200746EA06464FEA164602FA07F7CE
:102C200046EA070622FA03F2C3F1200701FA07F782
:102C300042EA070221FA03F14FF00003A7E746EA50
:102C4000020646EA06464FEA164646EA0106BCBFB9
:102C500046EA0646360C4FF000034FF000024FF0F4
:102C6000000194E72DE9804C70B49A46934691E8B0
:102C7000380007C831EA400C48BF34EA430C03D59A
:102C8000FFF7E6FDFFF780FFF0BCBDE8008C2DE903
:102C9000804C70B49A46934691E8380007C810F00B
:102CA000804F08BF13F0804F03D100F005F8FFF705
:102CB0006BFFF0BCBDE8008C20F07F4723F07F4C19
:102CC00080EA030000F0004007EB0C03A3F57C53FF
:102CD000A3F1FE0392F0000F00F0B38095F0000F17
:102CE00000F077802DE901494FEA114021EA0048C0
:102CF0004FEA144624EA064700FB06FC08FB06F6EA
:102D000007FB08F818EB06484CEB164C00FB07F7DE
:102D100018EB07484CEB17404FEA124B22EA0B4ED8
:102D20004FEA154625EA06470BFB06FC0EFB06F6A6
:102D300007FB0EFE1EEB064E4CEB164C0BFB07F78B
:102D40001EEB074E4CEB174B18EB0B0840F1000045
:102D500018EB0E0B58EB000840F100008F1A4FF0F3
:102D600000014FF000063CBFC943661B14BFB5EB22
:102D7000040C00213CBFC943F61B4FEA174427EA65
:102D800004454FEA1C472CEA074C04FB076205FB8D
:102D900007F70CFB05F616EB074642EB174204FB60
:102DA0000CFC16EB0C4642EB1C421BEB060658EBE8
:102DB000020241414EEA8E0E46EA9E0601D5BDE86A
:102DC0000189B619524141EB0101A3F10103BDE8AC
:102DD00001894FEA144524EA05464FEA114721EAE2
:102DE000074C05FB07F406FB07F70CFB06F111EB9C
:102DF000074144EB174405FB0CFC11EB0C4144EB81
:102E00001C444FEA124722EA074C05FB07F206FB77
:102E100007F70CFB06F616EB074642EB174205FBDD
:102E20000CFC16EB0C4642EB1C456A1854F10001F1
:102E300048BF7047B619524141EB0101A3F10103AC
:102E4000704795F0000F37D04FEA114221EA024651
:102E50004FEA144724EA074C02FB07F106FB07F789
:102E60000CFB06F414EB074441EB174102FB0CFC8E
:102E700014EB0C4441EB1C414FEA154725EA074C83
:102E800002FB07F506FB07F70CFB06F616EB0746F9
:102E900045EB174502FB0CFC16EB0C4645EB1C42C0
:102EA000121951F1000148BF7047B619524141EB68
:102EB0000101A3F1010370474FEA144524EA0546D6
:102EC0004FEA114721EA074C05FB07F106FB07F71C
:102ED0000CFB06F212EB074241EB174105FB0CFC21
:102EE00012EB0C4251EB1C414FF0000648BF7047FB
:102EF000921841EB0101A3F101037047490050EA28
:102F0000C12018BF04204A0D18BF40F0010040F254
:102F1000FF72B2EB515F08BF40F00200012808BF0A
:102F20000520704730380A2801D201207047002060
:102F30007047000010B500290AD00878002807D093
:102F400005487844FEF7EEF9002801D0002010BDB6
:102F50000248784410BD0000820200007A0200009E
:102F600010B500290AD00878002807D00548784411
:102F7000FEF7D8F9002801D0002010BD024878449F
:102F800010BD0000720200006A0200000808A0F5EF
:102F900000114FEA3101704743004FEAD30C4FEA6A
:102FA0003C0C43401FBF40070CF1605113F0FE4F33
:102FB00070471CF0006F03D10CF0004100207047F7
:102FC0000CF0004343EA507040EACC0010B500F02A
:102FD0000EF800BF000000924FEA0001FFF7D6BFD5
:102FE0004FF00041A1F500214FF0000070470EF1B5
:102FF000020E2EF0030E5EF8044B244204D44FEA76
:103000004102B2F17F4F11D84FEA4003B3F17F4F35
:103010000CD80ED14FEAD07C0CEB4C0C0CF1020C0E
:10302000B2F17F4F08BF4CEBD17C04E04FF0080CAD
:1030300001E04FEAD17C0CEB4C0324FA03F404F0DA
:103040000704B4F1040C06D20EEB840CBDE810406A
:103050004CF0010C6047DFE80CF0070802024FF06B
:103060000040A0F5800010BD0846420018BFD2F114
:10307000807288BF00F0004010BDFDF75DBDFDF718
:1030800091BE00000000000000000000303132332B
:10309000343536373839414243444546403058008C
:1030A00030313233343536373839616263646566BE
:1030B000403078000400000800000000000000021A
:1030C0000001000010303132333435363738396181
:1030D0006263646566787000303132333435363778
:1030E00038394142434445465850000002400000F0
:1030F000000000A00000000005400000000000C823
:10310000000000000C4000000000409C0000000097
:10311000194000000020BCBE000000003440000048
:10312000BFC91B8E00000004B5400000504BCFD03B
:103130006607E2CF010000006C4100003E8251AA08
:10314000DFEEA73401000000D9420000DCB5A0E2A8
:103150003A301F97FFFFFFFFB4450000FD25A0C8D0
:10316000E9A3C14FFFFFFFFFFF3F00000000008009
:1031700000000000FF3F0000000000800000000091
:103180000000000000000000010203040607080917
:10319000010202030405060708090A0B0C0D0E0FB5
:1031A00010100000F03200080000002010000000A5
:1031B00050010008003300081000002080060000C5
:1031C000700100081C00000043000000F8FFFFFF32
:1031D0000C0000000E0000000F0000002E00000098
:1031E0001001000043000000F8FFFFFF00404040D6
:1031F00040404040404041414141414040404040CA
:103200004040404040404040404040404005020275
:103210000202020202020202020202020220202034
:103220002020202020202002020202020202909090
:10323000909090901010101010101010101010108E
:1032400010101010101010100202020202028888E2
:1032500088888888080808080808080808080808EE
:1032600008080808080808080202020240000000D6
:10327000000000000000000000000000000000004E
:10328000000000000000000000000000000000003E
:10329000000000000000000000000000000000002E
:1032A000000000000000000000000000000000001E
:1032B000000000000000000000000000000000000E
:1032C00000000000000000000000000000000000FE
:1032D00000000000000000000000000000000000EE
:1032E00000000000000000000000000000000000DE
:1032F00001000000100000000024F40001000000A4
:04000005080000ED02
:00000001FF
